:020000040800F2
:10000000380C0020C9010008D9200008D1200008C0
:10001000D5200008650700086544000800000000BE
:10002000000000000000000000000000594400082B
:100030006907000800000000554400085D440008FE
:10004000E3010008E3010008E3010008E301000800
:10005000E3010008E3010008E3010008E3010008F0
:10006000E3010008E3010008E3010008E3010008E0
:10007000E3010008E3010008E3010008E3010008D0
:10008000E3010008E3010008E3010008E3010008C0
:10009000E3010008E3010008E3010008E3010008B0
:1000A000E3010008E3010008E3010008E3010008A0
:1000B000E3010008E3010008E3010008E301000890
:1000C000E3010008E3010008E3010008E301000880
:1000D000E3010008E3010008E3010008E301000870
:1000E000E3010008E3010008E301000800F002F862
:1000F00000F05BF814A696E8000CB244B344DA456D
:1001000001D100F052F8BAE80F000FA696E83000CF
:10011000A5EB040504EB0607AAEB0704A7F101070A
:100120004FEA15154FEA3414A4F10104AC4201D38F
:1001300000F03BF813F0010F18BFFB1A43F0010366
:1001400000F001F8DBE71847804D0000A04D0000EB
:10015000103A24BF78C878C1FAD8520724BF30C8F3
:1001600030C144BF04680C60704700007047000055
:100170000023002400250026103A28BF78C1FBD8B0
:10018000520728BF30C148BF0B607047752900F087
:10019000AB80782900F0E480732900F0A58200206C
:1001A00070471FB51FBD10B510BD00F0A1FA114674
:1001B000FFF7F7FF04F058F900F0BFFA03B4FFF7B8
:1001C000F2FF03BC00F0C6FA09488047094800471F
:1001D000FEE7FEE7FEE7FEE7FEE7FEE7FEE7FEE7F7
:1001E000FEE7FEE704480549054A064B7047000054
:1001F00061440008ED00000838060020380C00209B
:1002000038080020380800200FB41CB50C0007AADD
:10021000009007D04142A14202D32044401E01E099
:100220004FF0FF30074B7B4469460190069800F081
:100230002EFA0020002C01D0009908701CBC5DF83B
:1002400014FB00008B04000070B50446856900684B
:10025000C10601D5302600E02026C00707D070BDBA
:10026000D4E9012130469047206A401C20626D1E6F
:10027000F6D570BD70B5044685690078C00707D112
:1002800070BDD4E9012120209047206A401C2062E3
:100290006D1EF6D570BD70B50C460546012A05D019
:1002A0002878800600D5EA69002302E0012305E0F2
:1002B0005B1C934202D2E05C0028F9D1A869E618E1
:1002C000C01AA861286A184428622846FFF7BCFFB4
:1002D00004E0D5E9012114F8010B9047B442F8D3AA
:1002E0002846FFF7C7FF70BD2DE9F0410646002400
:1002F00010687529314616A510D0AFF3008000288C
:1003000002DA404213A507E031688A0701D512A539
:1003100002E0490704D511A5012401E0AFF30080F4
:1003200000210A2206F1240709E0B0FBF2FCB0FB31
:10033000F2F302FB1C00303078541846491C0028A8
:10034000F3D123462A463046BDE8F04100F041B9DA
:10035000000000002D0000002B0000002000000025
:1003600070B504460D4621461068AFF30080218821
:10037000090502D50F4A7A4402E00E4A7A440E3249
:10038000002104F1240305E000F00F060009965D4A
:100390005E54491C0028F7D120780023000704D5BB
:1003A000702D02D009B1022311322046BDE8704001
:1003B00000F00FB91C4A00002DE9F05F89460446A1
:1003C0004FF0000ADFF874B1FB44C0F820A02046CB
:1003D000E1688847002874D0252806D0D4E9012197
:1003E0009047206A401C2062F1E700265F462046C5
:1003F000E16888472028054607DB312D05D27819AA
:1004000010F8200C08B10643F1E7B00701D526F03B
:100410000406C4F81CA00027C4F818A02A2D09D08F
:10042000284604F0B1FC38B304EB8708303DC8F827
:10043000185019E059F8041B204604EB870291611B
:10044000E1688847012F054618D1E069002820DAC5
:1004500026F020061DE0D8F8180000EB800005EB20
:1004600040003038C8F818002046E1688847054643
:1004700004F08AFC0028EED1012F0AD02E2D08D1DD
:100480002046E16888477F1C0546022F46F020067B
:10049000C4DBA069002803DA404246F00106A061EF
:1004A000F00701D026F010066C2D0BD0682D09D076
:1004B0004C2D39D06A2D35D0742D35D07A2D33D0CE
:1004C00016E038E0E1682F4620468847B8420546E6
:1004D00009D16C2F26D04FF48060E1680643204696
:1004E0008847054604E06C2F1AD04FF4807006430D
:1004F0000DB3A5F14100192802D8203546F4006655
:100500004A462946204626604E46FFF73FFE80B108
:1005100001280BD0F61D26F0070000F1080956E768
:100520004020E4E78020D8E70020D6E706F1040960
:100530004DE7284652E7206ABDE8F09FF2490000E7
:1005400010B5431C02E010F8011B71B18107FAD10C
:100550004FF0013202C88C1A8C4314EAC211F9D050
:10056000C01A0A0603D0C01E10BDC01A10BD0A046E
:1005700001D0801E10BD0902FCD0401E10BD4FF0FE
:10058000000200B5134694469646203922BFA0E8E3
:100590000C50A0E80C50B1F12001BFF4F7AF0907EF
:1005A00028BFA0E80C5048BF0CC05DF804EB8900E0
:1005B00028BF40F8042B08BF704748BF20F8022B23
:1005C00011F0804F18BF00F8012B7047704770473B
:1005D00070472DE9F0470D4699469246044600F1D2
:1005E00024080168880604D5E06921F01001216023
:1005F00000E00120A84201DD471B00E00027A169BF
:100600007A1902EB0900081AA0612078C00602D40A
:100610002046FFF719FE002608E0D4E901211AF868
:1006200006009047206A401C761C20624E45F4DB91
:100630002078C0060AD52046FFF706FE06E0D4E97A
:10064000012130209047206A401C2062381EA7F10B
:100650000107F4DC07E0D4E9012118F80500904710
:10066000206A401C2062281EA5F10105F3DC20460B
:10067000FFF700FE2078000602D50220BDE8F087D3
:100680000120FBE701694A1C02610878704700B548
:100690008FB0CDE901310021059105497944CDE9BB
:1006A000031011466846FFF787FE0FB000BD00003B
:1006B000E5FFFFFFD1E900239A4202D2531C0B60F1
:1006C0001070704710B5436913B1AFF3008001E0BB
:1006D000FFF7E1FD012010BD127800F124010A703E
:1006E00000224A700122EDE711684FF0FF32E9E77E
:1006F000754600F02BF8AE4605006946534620F0DB
:100700000700854618B020B5FFF76CFDBDE8204016
:100710004FF000064FF000074FF000084FF0000BBD
:10072000AC46ACE8C009ACE8C009ACE8C009ACE82C
:10073000C00921F007018D46704710B50446AFF39C
:1007400000802046BDE81040FFF738BD00487047E4
:100750001000002001491820ABBEFEE72600020071
:1007600070470000FEE7000070470000B0B5044687
:1007700000F024F9054640F20000C2F200000078C3
:10078000611C18BF044400BF00F018F9401BA042D0
:10079000FAD3B0BD2DE9F04F82B00E68002E00F004
:1007A000FD8041F20042C4F20102042340F2004EF7
:1007B000904208BF03234FF6FF7CC4F2010E009362
:1007C00000240123C1F2100C4FF0000A4FF0000981
:1007D0004BE000BF41F20002C4F20102009F9042D0
:1007E00008BF022704F00C030F229A402BEA0202F2
:1007F00007FA03F34FEA9A051A4346F825204E6894
:1008000040F20C45F202DEF8082054BF22EA08024A
:1008100042EA0802C4F20105CEF808202A68B302B1
:1008200054BF22EA080242EA08022A60B303DEF853
:10083000042054BF22EA080242EA0802F303CEF879
:100840000420DEF800204FF0010354BF22EA080222
:1008500042EA0802CEF800200E680AF1010A36FAD0
:100860000AF204F1040400F0998003FA0AFB16EA84
:100870000B08F1D04E68664512DC122E56D8DFE820
:1008800006F0350B4D49555555555555555555554A
:1008900055555545510000BFD1F80C9046E000BFBA
:1008A0004FF6FF72C1F2210296420FDC0022C1F224
:1008B000110296421AD00022C1F21202964215D0BD
:1008C0000022C1F22102964210D02FE00022C1F294
:1008D000220296420AD00022C1F23102964205D08D
:1008E0000022C1F23202964220D100BF8A684AB18A
:1008F000012A14BFC0F814B0C0F810B04FF00809B6
:1009000014E000BF4FF0040910E000BFCA6802F114
:1009100004090BE04FF0000908E000BFCA6802F1CB
:10092000080903E0CA6802F10C0900BF0246264626
:10093000B8F5807F24BF0432203E17680F25B540EC
:1009400027EA050509FA06F635431560CA79D20685
:100950007FF582AF41F21803C4F202031A68AEF5C4
:100960007E7642F001021A601A6802F001020192DA
:10097000019A2AF0030256F802B040F60002C4F2CF
:100980000102904208D040F60042C4F201029042B7
:100990007FF420AF012725E7002723E702B0BDE859
:1009A000F08F00008068084018BF012070470000E9
:1009B000002A08BF090401617047000040F234605A
:1009C000C2F2000000687047002804BF0120704791
:1009D000F0B581B0044690F83D0028B9002084F8B5
:1009E0003C00204600F0A2F8242084F83D00206856
:1009F000016821F001010160016841F400410160DA
:100A0000016821F40041016000F048FA636848F28F
:100A1000A16CC0F2010C40F60011C0F23D0163452B
:100A20003CBF48F28041C0F21E01884202D2012040
:100A300001B0F0BD4DF68361C4F21B31A0FB011281
:100A40002168970CD1F804E04FF496762EF03F051C
:100A500045EA92454D60774348F638160D6AC0F274
:100A60004106A7FB067625F03F07634538BF960C85
:100A7000721C3A430A62CA6948F2A0664CF6FF77D4
:100A8000C0F20106B34222EA07020BD801385B002C
:100A9000B0FBF3F001306FF31F30042898BF04203F
:100AA0001BE000BFA768013857B119277B43B0FB93
:100AB000F3F001306FF31F3070B100F5804007E0B4
:100AC00003EB4303B0FBF3F001306FF31F3018B1B9
:100AD00000F5004001E000BF01201043C861086834
:100AE000D4E9072320F0C000104318430860886849
:100AF00048F2FF3204F10C0790438CCF18431043A7
:100B0000A6698860C86820F0FF0038433043C86099
:100B1000086840F00100086000202021206484F86B
:100B20003D10206384F83E0001B0F0BD10B586B0E2
:100B3000016845F60000C4F2000081424FF0000158
:100B4000CDE90411CDE9021102D006B010BD00BFFD
:100B500041F21804C4F20204216800F5344041F067
:100B600008012160216801F00801019101994FF409
:100B700040610291122103910321059102A9FFF71F
:100B800009FE606840F480006060606800F48000E6
:100B90000190019806B010BD40F2000040F23461AF
:100BA000C2F20000C2F2000100780A681044086036
:100BB0007047000080B542F20000C4F202000168F4
:100BC00041F010010160032000F07AF80F2000F0DE
:100BD00005F800F027F8002080BD000070B540F255
:100BE0000006C2F2000640F208013278C2F20001AB
:100BF0004FF47A730968B3FBF2F20446B1FBF2F1E9
:100C0000084600F073FB0F2C4FF0010508D838B9E7
:100C10004FF0FF3021460022002500F025F87460D7
:100C2000284670BD82B041F21800C4F2020001688B
:100C3000022241F001010160016801F0010101910E
:100C40000199416841F080514160406800F0805056
:100C5000009000980420C4F20100016862F31A6158
:100C6000016002B07047000010B54EF60C5CCEF289
:100C7000000CDCF80030C3F3022E8EF00704042CC5
:100C800028BF0424BEF103034FF0FF3E0EFA04F424
:100C900038BF0023A14399400EFA03F39A4311434E
:100CA00000F00F0200F160430901043A03F56443C8
:100CB0006244002848BF02F10C03197010BD000007
:100CC0004EF60C51CEF200010A684FF6FF031A40AF
:100CD00060F30A2242F0806040F0FD7008607047C7
:100CE000002804BF012070472DE9F04381B042F293
:100CF0000008C4F202080446D8F800000D4600F0CF
:100D0000070081420CD9D8F8000020F007002843E2
:100D1000C8F80000D8F8000000F00700A8426CD125
:100D2000206841F204098107C4F2020917D541077E
:100D300005D5D9F8001041F4E061C9F800100107A9
:100D400005D5D9F8001041F46051C9F80010D9F860
:100D50000010A26821F0F0011143C9F80010C0078B
:100D600042D1D8F8000000F0070085420CD2D8F834
:100D7000000020F007002843C8F80000D8F8000061
:100D800000F00700A84238D12068410707D5D9F8FC
:100D90000010E26821F4E0611143C9F80010000777
:100DA00008D5D9F80000216920F4605040EAC1005C
:100DB000C9F80000D9F8002002F00C00082841F220
:100DC0000020C0F27A004DD144F6FE53C2F38341B5
:100DD000C0F60003595CD20338D440F60010C0F2CC
:100DE0003D0048433EE000BF606859F8041C0228FB
:100DF00008D0012826D1890306D4012001B0BDE81E
:100E0000F08300BF8901F8D5D9F8001021F0030163
:100E10000843C9F80000FFF7D1FD064641F28837C4
:100E2000D9F80000616800F00C00B0EB810F98D099
:100E3000FFF7C4FD801BB842F2D9032001B0BDE822
:100E4000F08300BF8907D8D5DEE700BFD9F80020BE
:100E500044F6FC53C2F34042C0F600039A5C484398
:100E6000B0FBF2F0D9F8001044F6E452C1F30311DC
:100E7000C0F60002515C40F2080220FA01F140F293
:100E80000400C2F200000068C2F200021160FFF725
:100E9000A5FE002001B0BDE8F083000040F208008C
:100EA00041F20401C2F20000C4F2020100680968C4
:100EB00044F6F452C1F30221C0F60002515CC8406E
:100EC0007047000040F2080041F20401C2F2000045
:100ED000C4F202010068096844F6F452C1F3C22169
:100EE000C0F60002515CC84070470000002804BFF3
:100EF000012070472DE9F04182B00446007841F2AC
:100F00000006C007C4F202060CD0706800F00C00A6
:100F1000042840F081803068800303D56068002891
:100F200000F04681207880071BD5706810F00C0F08
:100F300009D0706800F00C00082840F087807068C5
:100F4000C00300F183803068800703D52069012841
:100F500040F02E813068616920F0F80040EAC1005D
:100F600030602078000713D4207840072CD4E5693E
:100F7000002D00F01881706800F00C00082840F087
:100F8000A780012D40F00481012002B0BDE8F0816E
:100F9000A069002800F084800020C4F242200121D2
:100FA000C0F88014FFF70AFD054600BF706A80078D
:100FB00000F1B280FFF702FD401B0228F6D90320A2
:100FC00002B0BDE8F08100BFF0695FEAC00808D454
:100FD000F06940F08050F061F06900F080500090BE
:100FE000009847F20007C4F200073868C00549D4EA
:100FF000386840F480703860FFF7E0FC054600BFB9
:101000003868C0053ED4FFF7D9FC401B6428F7D9E7
:10101000032002B0BDE8F081706800F00C000828E1
:1010200003D17068C0033FF576AF6168306800296E
:1010300000F00C81B1F5A02F00F00081B1F5803FE8
:1010400040F01A8140F480301CE100BF2069002884
:1010500040F20000C4F2422000F0888001210160CB
:10106000FFF7ACFC054600BF306880073FF572AF64
:10107000FFF7A4FC401B0228F6D9032002B0BDE80C
:10108000F08100BFE168306A002900F09D800529E9
:1010900000F09280012940F0AF8040F00100B1E003
:1010A0000020C4F242200021C0F88014FFF786FC23
:1010B000054600BF706A80077FF556AFFFF77EFCDC
:1010C000401B0228F6D9032002B0BDE8F08100BF22
:1010D0000027C4F2422700203866FFF76FFC022D7C
:1010E00005460DD13068800140F1DE80FFF766FCD7
:1010F000401B02284FF00300F4D902B0BDE8F08194
:10110000306880014FD5FFF759FC401B02284FF093
:101110000300F5D9F1E700BF40F20800C2F2000079
:10112000006844F6D351C1F26201A0FB0101480AF4
:10113000019000BF00BF0198411E002801913FF4BB
:1011400013AF00BF0198411E002801913FF40CAF7E
:1011500000BF0198411E002801913FF405AF00BF78
:101160000198411E00280191E4D1FDE600210160B3
:10117000FFF724FC054600BF306880077FF5F1AE1D
:10118000FFF71CFC401B02284FF00300F4D9B4E722
:101190007068216A00F480328A4209D1616A00F4E1
:1011A0007010884204D1002002B0BDE8F08100BF79
:1011B000012002B0BDE8F08140F004003062306AE6
:1011C00040F001001EE000BF20F001003062306AF4
:1011D00020F004003062FFF7F1FB054641F288374A
:1011E000306A800720D5FFF7E9FB401BB8424FF07B
:1011F0000300F5D981E700BF20F001003062306ABA
:1012000020F004003062FFF7D9FB054641F2883731
:10121000306A800708D4FFF7D1FB401BB842F7D9EA
:10122000032002B0BDE8F081B8F1000F3FF59FAE9A
:10123000F06920F08050F06199E600BF40F4802012
:101240003060306840F480301CE000BF20F4803013
:101250003060306820F480203060FFF7AFFB054637
:10126000306880037FF55EAEFFF7A8FB401B642863
:101270004FF00300F4D940E720F48030306030684C
:1012800020F480203060FFF799FB0546306880032A
:101290003FF548AEFFF792FB401B6428F6D90320C8
:1012A00002B0BDE8F08100BF206AB0F5803F05D1F3
:1012B0007168A26821F40031114371607168626A3B
:1012C00021F4741111430843706001203866FFF760
:1012D00075FB0446306880013FF565AFFFF76EFB94
:1012E000001B02284FF00300F4D906E7411E00203E
:1012F000B0EB116F1CBF012070474EF21002CEF20E
:10130000000251604EF62351CEF20001F0230B7023
:10131000072190601160704790F83C20012A04BFBB
:1013200002207047B0B501F108053CCDD1E900CEEF
:1013300023F47C5322F470521A432EF4F0431A43E0
:101340002CF4E0431A4324F4C0431A432A43C969E6
:1013500022F48042036811435964002180F83C1054
:101360000020B0BD90F83C20012A4FF0020236D098
:1013700010B580F83D200268D2F804E0D2F808C029
:101380000C682EF07003234340F2FF74C4F2000493
:10139000A24253600ADCB2F1804F13D040F2004306
:1013A000C4F200039A420DD011E000BF42F60043A0
:1013B000C4F201039A4205D040F60003C4F20003D0
:1013C0009A4204D149682CF08003194391600121AD
:1013D000002280F83D1080F83C20BDE81040104607
:1013E00070470000C1B1042908D0082914BF452264
:1013F0004422825C012A05D016E000BF4322825CB1
:10140000012A11D10222082910D0042914BF80F822
:10141000452080F843200BE090F84220012A03D1B8
:10142000022280F8422003E00120704780F8442027
:10143000006801F00F010422036A02FA01F123EAB5
:1014400001020262026A11430162416C40F2FF72C2
:10145000C4F2000241F40041904241640ADCB0F160
:10146000804F13D040F20041C4F2000188420DD0F9
:1014700013E000BF42F60041C4F20101884205D0EA
:1014800040F60001C4F20001884206D1816801F0F3
:101490000701062904BF00207047016841F00101DF
:1014A000016000207047000010B5026801F00F0EC7
:1014B0004FF0040C146A0CFA0EF324EA03031362CF
:1014C000136A1362146A41F211131C4206D1D2F856
:1014D00020C040F244441CEA040F0DD0146A1C42A0
:1014E00011D1136A40F2444423420CD1136823F013
:1014F0000103136007E000BF546C24F400445464FB
:10150000146A1C42EDD0082912D004290AD00029FF
:101510004FF0010114BF80F8451080F84210002000
:1015200010BD00BF012180F84310002010BD00BF96
:10153000012180F84410002010BD0000002804BFE5
:101540000120704710B590F83D1031B9002180F8A6
:101550003C10044600F070F82046022180F83D104F
:10156000016840F2FF740B68C4F2000442F6004CBC
:10157000A142C4F2010C15DCB1F1804F1AD040F247
:101580000042C4F20002914214D0A14218DCB1F131
:10159000804F1DD040F20042C4F20002914217D0A9
:1015A0001AE000BF614505D040F60002C4F2000217
:1015B0009142EAD1826823F070031343A142E6DD31
:1015C000614505D040F60002C4F20002914203D109
:1015D000026923F440731343846923F08002D0F836
:1015E00004E0C368224361450A60CB62C1F828E089
:1015F00002D14269CCF8302001224A610B69DB0735
:1016000003D00B6923F001030B6180F8462080F8BA
:101610003E2080F83F2080F8402080F8412080F86C
:10162000422080F8432080F8442080F8452080F84C
:101630003D20002010BD0000006842F60041C4F2C9
:101640000101884218BF704781B041F21800C4F20E
:101650000200016841F400610160006800F400606C
:101660000090009801B0704790F83C20012A4FF09C
:1016700002026CD080B580F83D20D0F800C04FF653
:101680007772DCF8083023EA0202CCF808200B68F5
:101690004F2B29DC1F2B45DD202B46D0302B44D08F
:1016A000402B40F0AF80D1F804E0C968DCF820306E
:1016B000DCF8202022F00102CCF82020DCF81820F1
:1016C00022F0F00242EA011123F00A0242EA0E027D
:1016D000CCF81810CCF82020DCF8081041F04701B5
:1016E00021F0300128E000BF6F2B33DDB3F5005F40
:1016F00074D0B3F5805F21D0702B40F08380D1E9A6
:1017000001E3C968DCF8082043EA0E0322F47F42B3
:1017100043EA01211143CCF80810DCF8081041F02D
:10172000770109E00BB1102B6CD1DCF8081021F027
:101730007001194341F00701CCF808100022012183
:1017400080F83D10002180F83C10BDE88040104634
:10175000704700BF502B21D0602B53D1D1F804E04B
:10176000C968DCF82030DCF8202022F01002CCF828
:101770002020DCF8182022F4704242EA013123F0E4
:10178000A00242EA0E12CCF81810CCF82020DCF8A7
:10179000081041F0670121F01001CDE7D1F804E015
:1017A000C968DCF82030DCF8202022F00102CCF8F7
:1017B0002020DCF8182022F0F00242EA011123F088
:1017C0000A0242EA0E02CCF81810CCF82020DCF80D
:1017D000081041F0570121F02001ADE7D1E901E304
:1017E000C968DCF8082043EA0E0322F47F4243EA8A
:1017F00001211143CCF80810DCF8081041F48041B5
:101800009AE700BF01229AE7B0B586B0006840F2BF
:101810000041C4F2000188424FF00001CDE90411FB
:10182000CDE902114ED040F60001C4F20001884219
:1018300030D042F60041C4F2010188425CD141F24D
:101840001800C4F20200016840F6000541F00801EA
:1018500001600168C4F2010501F0080101910199DC
:101860000168022441F004010160006802A900F04F
:101870000400019001984FF4C040029005F580608B
:1018800003940594FEF786FF4FF440712846CDE996
:1018900002142CE041F21800C4F20200016841F089
:1018A00008010160006800F0080001900198C02064
:1018B00002900220039040F60000C4F2010000F5FF
:1018C000806014E041F21800C4F20200016841F0A7
:1018D00004010160006800F0040001900198C0203C
:1018E00002900220039040F60000C4F201000221A1
:1018F000059102A9FEF74EFF06B0B0BD90F83C304E
:10190000012B04BF022070474FEAB202032A00F203
:10191000F1802DE9F043DFE802F003A53B7500BF3D
:10192000036842F600461D6A1A6AC4F2010622F0F4
:1019300001021A621A465C6852F818CFB3428E68E8
:10194000D1F800E025F0020545EA06050CD1CE6885
:10195000D1E9057824F4407425F00C0526F004063E
:101960003C43354344EA08042CF0730747EA0E076A
:101970005C609F614F6809695F631D629F6947F002
:1019800008079F619F6927F004079F61A6E000BFD9
:10199000036842F600461D6A1A6AC4F2010622F480
:1019A00080721A621A46D3F804C052F81CEFB34290
:1019B0008E680C6825F4007545EA06250FD1CE68BF
:1019C000D1E90598360240F2FF4725F44065BE4351
:1019D00035432CF4405748EA090647EA061C2EF026
:1019E00073072743C3F804C0DF614F680969DF63E9
:1019F0001D62DF6947F00807DF61DF6927F0040730
:101A0000DF616BE0036842F60047D3F820C01A6A32
:101A1000C4F2010722F480521A621A465C6852F836
:101A20001C5FD1F800E08E68BB4204D14F6924F4FA
:101A3000804444EA87142CF4005747EA063725F41B
:101A4000E64646EA0E265C60DE614E6809691E6461
:101A50001F62DF6947F40067DF61DF6927F4806791
:101A6000DF613AE0036842F600461D6A1A6AC4F272
:101A7000010622F010021A621A46D3F804C052F886
:101A8000184FB3428E68D1F800E025F0200545EAF2
:101A900006150FD1CE68D1E905986FF0400725F003
:101AA000C00507EA061635432CF4406748EA0906E4
:101AB00047EA860C24F4E64444EA0E27C3F804C03F
:101AC0009F614F6809699F631D629F6947F40067C2
:101AD0009F619F6927F480679F610902136819431A
:101AE00011600021BDE8F043002280F83C20084648
:101AF000704700BF0121002280F83C200846704753
:101B0000002804BF0120704710B590F83D1031B98E
:101B1000002180F83C10044600F070F820460221B5
:101B200080F83D10016840F2FF740B68C4F20004B5
:101B300042F6004CA142C4F2010C15DCB1F1804F19
:101B40001AD040F20042C4F20002914214D0A142E5
:101B500018DCB1F1804F1DD040F20042C4F2000207
:101B6000914217D01AE000BF614505D040F600024F
:101B7000C4F200029142EAD1826823F07003134359
:101B8000A142E6DD614505D040F60002C4F2000244
:101B9000914203D1026923F440731343846923F013
:101BA0008002D0F804E0C368224361450A60CB623A
:101BB000C1F828E002D14269CCF8302001224A6104
:101BC0000B69DB0703D00B6923F001030B6180F87D
:101BD000462080F83E2080F83F2080F8402080F8A2
:101BE000412080F8422080F8432080F8442080F88B
:101BF000452080F83D20002010BD000082B0006824
:101C000040F60001C4F20001884215D040F20041C4
:101C1000C4F2000188421CD141F21C00C4F202004F
:101C2000016841F002010160006800F002000190CB
:101C3000019802B0704700BF41F21C00C4F20200DC
:101C4000016841F004010160006800F004000090A8
:101C5000009802B070470000C1B1042908D00829DB
:101C600014BF41224022825C012A05D016E000BF49
:101C70003F22825C012A11D10222082910D00429B6
:101C800014BF80F8412080F83F200BE090F83E2000
:101C9000012A03D1022280F83E2003E00120704790
:101CA00080F84020006801F01F010122036A8A4089
:101CB00023EA02010162036A42F64441C4F20101CF
:101CC0001A43A1F14403984202620FD040F2FF711F
:101CD000C4F20001884213DCB0F1804F1CD040F206
:101CE0000041C4F20001884216D01CE00A6842F4A8
:101CF00000420A6040F2FF71C4F200018842EBDD4D
:101D000042F60041C4F20101884205D040F60001CC
:101D1000C4F20001884206D1816801F0070106295A
:101D200004BF00207047016841F0010101600020FC
:101D30007047000080B5026801F01F0C012303FA10
:101D40000CFE136A42F6004C23EA0E031362C4F23F
:101D5000010C136A6245136211D1DCF820C041F214
:101D600011131CEA030F0AD1D2F820C040F24443F9
:101D70001CEA030F03D1536C23F400435364D2F8DD
:101D800020C041F211131CEA030F06D1D2F820C083
:101D900040F244431CEA030F14D0082918D0042948
:101DA0000AD000294FF0010114BF80F8411080F8DB
:101DB0003E10002080BD00BF012180F83F100020B0
:101DC00080BD00BF136823F0010313600829E6D12A
:101DD000012180F84010002080BD0000002804BFD1
:101DE0000120704710B5044690F8410028B9002042
:101DF00084F84000204600F063F8242084F8410075
:101E00002068D4E90212C36823F40053C360036955
:101E100023F440531A430261D4E904231143C268F6
:101E2000194341F20C639A431143C1604169A269AD
:101E300021F44071114343F60002C4F201029042C2
:101E4000416103D0FFF72AF802E000BFFFF73AF83C
:101E5000D4E90023192148439900B0FBF1F048F27E
:101E60001F5CC5F2EB1CA0FB0C314FF69C734909BB
:101E7000C0F6FF7301FB0300322303EB0010A0FB4D
:101E80000C03F02000EA531000EB0110C3F34311E0
:101E9000084490601069202120F49040106150693E
:101EA00020F02A005061D06840F40050D06000203B
:101EB000606484F8411084F84210606310BD000033
:101EC00070B586B040F60004C4F201040068A4F5C1
:101ED0004441002688420596CDE90366029601D06A
:101EE00006B070BD41F21800C4F20200416802ADB4
:101EF00041F400314160416801F4003101910199E0
:101F0000016841F0040101600068294600F0040006
:101F10000190019804200290022003900320059074
:101F20002046FEF737FC0820CDE902062046294668
:101F30000496FEF72FFC06B070BD00002DE9F043BB
:101F400081B0044690F84100202809D100294FF0C3
:101F5000010018BF002A07D101B0BDE8F08300BF1F
:101F6000022001B0BDE8F0830020606421201D46FE
:101F70000E4684F841001746FEF720FDA784E7844B
:101F8000A1688146B1F5805F02D1206900285DD04B
:101F900037460020E28C2168002A5DD06A1C24D0DC
:101FA000002D4AD0804600BF0868000608D4FEF71E
:101FB00005FDA0EB0900A8427AD82168C868F3E7BC
:101FC00017B117F8010B04E038F8020B00276FF384
:101FD0005F204860E08C0138E084E08C0028E3D189
:101FE0003AE000BF0A68120609D40A68120606D44D
:101FF0000A6812065CBF0A685FEA0262F2D51FB186
:1020000017F8012B05E000BF30F8022B00276FF313
:102010005F224A60E28C013AE284E28C002AE4D139
:102020001AE000BF30F8022B00276FF35F224A60EE
:10203000E28C013AE284E28C72B10A68120635D56C
:10204000002FEFD017F8012BF1E700BF0027304633
:10205000E28C2168002AA1D1086840061ED42DB365
:10206000681C14D1086840062AD40868400627D4A2
:102070000868400624D4086840064FF00000F1D5F7
:102080000DE000BF2068C1680068400618D4FEF764
:1020900095FCA0EB0900A842F4D909E0002020211A
:1020A00084F8411001B0BDE8F08300BFFEF786FC64
:1020B0000320202184F8411001B0BDE8F08300BF67
:1020C0000020202184F8411001B0BDE8F083000019
:1020D000FEE70000FEE70000FEE70000F0B50FF6A7
:1020E000903212F801C05FEACC7140F047855FEA98
:1020F0008C7100F1FF855FEA4C7101F1B9805FEAF4
:102100000C7101F173834FFA80FEBEF1000F00F1F4
:1021100096821CF0100100F09282C11C40F2342221
:102120000346C9B2C2F20002044600BF151995F871
:10213000006246F00407661C8E4285F8007226D2C3
:1021400016F0800623D195F8016246F00407A61C1C
:102150008E4285F801721AD216F0800617D195F8D2
:10216000026246F00407E61C8E4285F802720ED227
:1021700016F080060BD195F80362043446F004068D
:102180008C4285F8036202D214F08005CED01C4642
:10219000151995F8006246F00807661C8E4285F80E
:1021A000007226D216F0800623D195F8016246F01F
:1021B0000807A61C8E4285F801721AD216F0800616
:1021C00017D195F8026246F00807E61C8E4285F8A2
:1021D00002720ED216F080060BD195F80362043419
:1021E00046F008068C4285F8036202D214F080059E
:1021F000CED01C46151995F8006246F01007661CF3
:102200008E4285F8007226D216F0800623D195F80A
:10221000016246F01007A61C8E4285F801721AD2A0
:1022200016F0800617D195F8026246F01007E61CFA
:102230008E4285F802720ED216F080060BD195F808
:102240000362043446F010068C4285F8036202D221
:1022500014F08005CED01C46151995F8006246F0A2
:102260002007661C8E4285F8007226D216F0800682
:1022700023D195F8016246F02007A61C8E4285F80E
:1022800001721AD216F0800617D195F8026246F054
:102290002007E61C8E4285F802720ED216F08006E8
:1022A0000BD195F80362043446F020068C4285F881
:1022B000036202D214F08005CED01C46151995F8A1
:1022C000006246F04007661C8E4285F8007226D2F6
:1022D00016F0800623D195F8016246F04007A61C4F
:1022E0008E4285F801721AD216F0800617D195F841
:1022F000026246F04007E61C8E4285F802720ED25A
:1023000016F080060BD195F80362043446F04006BF
:102310008C4285F8036202D214F08005CED01C46B0
:10232000151995F8006246F08007661C8E4285F804
:10233000007226D216F0800623D195F8016246F08D
:102340008007A61C8E4285F801721AD216F080060C
:1023500017D195F8026246F08007E61C8E4285F898
:1023600002720ED216F080060BD195F80362043487
:1023700046F080068C4285F8036202D214F0800594
:10238000CED01C46151995F8806246F00107661CF0
:102390008E4285F8807226D216F0800623D195F8F9
:1023A000816246F00107A61C8E4285F881721AD21E
:1023B00016F0800617D195F8826246F00107E61CF8
:1023C0008E4285F882720ED216F080060BD195F8F7
:1023D0008362043446F001068C4285F8836202D29F
:1023E00014F08005CED01C46151995F8806246F091
:1023F0000207661C8E4285F8807226D216F080068F
:1024000023D195F8816246F00207A61C8E4285F81A
:1024100081721AD216F0800617D195F8826246F0C2
:102420000207E61C8E4285F882720ED216F08006F4
:102430000BD195F88362043446F002068C4285F88D
:10244000836202D214F08005CED01C46151995F88F
:10245000806246F00407661C8E4285F8807226D2A0
:1024600016F0800623D195F8816246F00407A61C79
:102470008E4285F881721AD216F0800617D195F82F
:10248000826246F00407E61C8E4285F882720ED204
:1024900016F080060BD195F88362043446F00406EA
:1024A0008C4285F8836202D214F08005CED01C469F
:1024B000151995F8806246F00807661C8E4285F86B
:1024C000807226D216F0800623D195F8816246F0FC
:1024D0000807A61C8E4285F881721AD216F0800673
:1024E00017D195F8826246F00807E61C8E4285F8FF
:1024F00082720ED216F080060BD195F883620434F6
:1025000046F008068C4285F8836202D214F08005FA
:10251000CED01C46151995F8806246F01007661C4F
:102520008E4285F8807226D216F0800623D195F867
:10253000816246F01007A61C8E4285F881721AD27D
:1025400016F0800617D195F8826246F01007E61C57
:102550008E4285F882720ED216F080060BD195F865
:102560008362043446F010068C4285F8836202D2FE
:1025700014F08005CED01C46151995F8806246F0FF
:102580002007661C8E4285F880724ED216F08006B7
:102590004BD195F8816246F02007A61C8E4285F843
:1025A000817242D216F080063FD195F8826246F0E1
:1025B0002007E61C8E4285F8827236D216F080061D
:1025C00033D195F88362043446F020068C4285F8B6
:1025D00083622AD214F08005CED026E015F0800563
:1025E0002DD194F8815245F040069D1C8D4284F80F
:1025F000816224D215F0800521D194F8825245F0F1
:102600004006DD1C8D4284F8826218D215F08005E8
:1026100015D194F88352043345F040058B4284F879
:1026200083520CD213F0800409D1D41894F880524C
:1026300045F040065D1C8D4284F88062CED3BEF129
:10264000000F00F196821CF0200100F09282C11C64
:1026500040F234230446C9B2C2F20003024600BF6E
:102660009D1895F80071561C47F002078E4285F8B8
:10267000007126D216F0800723D195F80171961CBF
:1026800047F002078E4285F801711AD216F08007D2
:1026900017D195F80271D61C47F002078E4285F8D3
:1026A00002710ED216F080070BD195F80371043237
:1026B00047F002078A4285F8037102D212F08007C0
:1026C000CED022469D1895F80071561C47F004079D
:1026D0008E4285F8007126D216F0800723D195F836
:1026E0000171961C47F004078E4285F801711AD2D9
:1026F00016F0800717D195F80271D61C47F0040731
:102700008E4285F802710ED216F080070BD195F833
:102710000371043247F004078A4285F8037102D23C
:1027200012F08007CED022469D1895F80071561CF5
:1027300047F008078E4285F8007126D216F0800710
:1027400023D195F80171961C47F008078E4285F851
:1027500001711AD216F0800717D195F80271D61CB4
:1027600047F008078E4285F802710ED216F08007F6
:102770000BD195F80371043247F008078A4285F8B7
:10278000037102D212F08007CED022469D1895F830
:102790000071561C47F010078E4285F8007126D252
:1027A00016F0800723D195F80171961C47F01007A9
:1027B0008E4285F801711AD216F0800717D195F86C
:1027C0000271D61C47F010078E4285F802710ED2B6
:1027D00016F080070BD195F80371043247F010070B
:1027E0008A4285F8037102D212F08007CED02246C9
:1027F0009D1895F80071561C47F020078E4285F809
:10280000007126D216F0800723D195F80171961C2D
:1028100047F020078E4285F801711AD216F0800722
:1028200017D195F80271D61C47F020078E4285F823
:1028300002710ED216F080070BD195F803710432A5
:1028400047F020078A4285F8037102D212F0800710
:10285000CED022469D1895F80071561C47F04007CF
:102860008E4285F8007126D216F0800723D195F8A4
:102870000171961C47F040078E4285F801711AD20B
:1028800016F0800717D195F80271D61C47F0400763
:102890008E4285F802710ED216F080070BD195F8A2
:1028A0000371043247F040078A4285F8037102D26F
:1028B00012F08007CED022469D1895F80071561C64
:1028C00047F080078E4285F8007126D216F0800707
:1028D00023D195F80171961C47F080078E4285F848
:1028E00001711AD216F0800717D195F80271D61C23
:1028F00047F080078E4285F802710ED216F08007ED
:102900000BD195F80371043247F080078A4285F8AD
:10291000037102D212F08007CED022469D1895F89E
:102920008071561C47F001078E4285F8807126D2CF
:1029300016F0800723D195F88171961C47F00107A6
:102940008E4285F881711AD216F0800717D195F85A
:102950008271D61C47F001078E4285F882710ED233
:1029600016F080070BD195F88371043247F0010708
:102970008A4285F8837102D212F08007CED02246B7
:102980009D1895F88071561C47F002078E4285F815
:10299000807126D216F0800723D195F88171961C9C
:1029A00047F002078E4285F881711AD216F080072F
:1029B00017D195F88271D61C47F002078E4285F830
:1029C00082710ED216F080070BD195F88371043214
:1029D00047F002078A4285F8837102D212F080071D
:1029E000CED022469D1895F88071561C47F00407FA
:1029F0008E4285F8807126D216F0800723D195F893
:102A00008171961C47F004078E4285F881711AD2B5
:102A100016F0800717D195F88271D61C47F004078D
:102A20008E4285F882710ED216F080070BD195F890
:102A30008371043247F004078A4285F8837102D219
:102A400012F08007CED022469D1895F88071561C52
:102A500047F008078E4285F8807126D216F080076D
:102A600023D195F88171961C47F008078E4285F8AE
:102A700081711AD216F0800717D195F88271D61C91
:102A800047F008078E4285F882710ED216F0800753
:102A90000BD195F88371043247F008078A4285F814
:102AA000837102D212F08007CED022469D1895F88D
:102AB0008071561C47F010078E4285F880714ED207
:102AC00016F080074BD195F88171961C47F01007DE
:102AD0008E4285F8817142D216F080073FD195F879
:102AE0008271D61C47F010078E4285F8827136D26B
:102AF00016F0800733D195F88371043247F0100740
:102B00008A4285F883712AD212F08007CED026E05F
:102B100016F080072DD192F88171A61C47F020078E
:102B20008E4282F8817124D216F0800721D192F86A
:102B30008271E61C47F020078E4282F8827118D21B
:102B400016F0800715D192F88371043447F02007FE
:102B50008C4282F883710CD214F0800209D11A19C8
:102B600092F88071661C47F020078E4282F88071CF
:102B7000CED35FEA4C6100F1EF86F0BDC11C00F1DD
:102B80001102CBB2D2B29342BFF4B1AA49B200292A
:102B90003FF5ADAA40F2342EC2F2000E194600BF36
:102BA0000EEB010494F8805045F040064D1C954210
:102BB00084F8806026D215F0800523D194F88150E6
:102BC00045F040068D1C954284F881601AD215F0BC
:102BD000800517D194F8825045F04006CD1C9542EF
:102BE00084F882600ED215F080050BD194F88350E2
:102BF000043145F04005914284F8835002D211F02F
:102C00008004CDD0194600BF0EEB010494F880502B
:102C100045F080064D1C954284F880605CD215F02A
:102C2000800559D194F8815045F080068D1C95425D
:102C300084F8816050D215F080054DD194F882500F
:102C400045F08006CD1C954284F8826044D215F090
:102C5000800541D194F88350043145F080059142BC
:102C600084F8835038D211F08004CDD034E000BF16
:102C70003F065B4F666D7D077F6F000014F0800498
:102C80007FF435AA91F8014144F001059C1C94425F
:102C900081F80151BFF42BAA14F080047FF427AA15
:102CA00091F8024144F00105DC1C944281F8025184
:102CB000BFF41DAA14F080047FF419AA91F803410F
:102CC000043344F00104934281F80341BFF40FAA96
:102CD00013F080017FF40BAA0EEB030191F8004181
:102CE00044F001055C1C944281F80051C6D3FFF703
:102CF000FEB900BF00F1110200F11403D1B2DBB242
:102D00009942BFF4F8A952B2002A3FF5F4A940F263
:102D1000342EC2F2000E0A460EEB020494F8005163
:102D200045F00206551C9D4284F8006126D215F03C
:102D3000800523D194F8015145F00206951C9D426F
:102D400084F801611AD215F0800517D194F8025168
:102D500045F00206D51C9D4284F802610ED215F0A2
:102D600080050BD194F80351043245F002059A42D4
:102D700084F8035102D212F08004CDD00A4600BF7D
:102D80000EEB020494F8005145F00406551C9D42D8
:102D900084F8006126D215F0800523D194F8015102
:102DA00045F00406951C9D4284F801611AD215F085
:102DB000800517D194F8025145F00406D51C9D42B8
:102DC00084F802610ED215F080050BD194F80351FE
:102DD000043245F004059A4284F8035102D212F0FD
:102DE0008004CDD00A4600BF0EEB020494F80051D7
:102DF00045F00806551C9D4284F8006126D215F066
:102E0000800523D194F8015145F00806951C9D4298
:102E100084F801611AD215F0800517D194F8025197
:102E200045F00806D51C9D4284F802610ED215F0CB
:102E300080050BD194F80351043245F008059A42FD
:102E400084F8035102D212F08004CDD00A4600BFAC
:102E50000EEB020494F8005145F01006551C9D42FB
:102E600084F8006126D215F0800523D194F8015131
:102E700045F01006951C9D4284F801611AD215F0A8
:102E8000800517D194F8025145F01006D51C9D42DB
:102E900084F802610ED215F080050BD194F803512D
:102EA000043245F010059A4284F8035102D212F020
:102EB0008004CDD00A4600BF0EEB020494F8005106
:102EC00045F02006551C9D4284F8006126D215F07D
:102ED000800523D194F8015145F02006951C9D42B0
:102EE00084F801611AD215F0800517D194F80251C7
:102EF00045F02006D51C9D4284F802610ED215F0E3
:102F000080050BD194F80351043245F020059A4214
:102F100084F8035102D212F08004CDD00A4600BFDB
:102F20000EEB020494F8005145F04006551C9D42FA
:102F300084F8006126D215F0800523D194F8015160
:102F400045F04006951C9D4284F801611AD215F0A7
:102F5000800517D194F8025145F04006D51C9D42DA
:102F600084F802610ED215F080050BD194F803515C
:102F7000043245F040059A4284F8035102D212F01F
:102F80008004CDD00A4600BF0EEB020494F8005135
:102F900045F08006551C9D4284F8006126D215F04C
:102FA000800523D194F8015145F08006951C9D427F
:102FB00084F801611AD215F0800517D194F80251F6
:102FC00045F08006D51C9D4284F802610ED215F0B2
:102FD00080050BD194F80351043245F080059A42E4
:102FE00084F8035102D212F08004CDD00A4600BF0B
:102FF0000EEB020494F8805145F00106551C9D42E9
:1030000084F8806126D215F0800523D194F881518F
:1030100045F00106951C9D4284F881611AD215F095
:10302000800517D194F8825145F00106D51C9D42C8
:1030300084F882610ED215F080050BD194F883518B
:10304000043245F001059A4284F8835102D212F00D
:103050008004CDD00A4600BF0EEB020494F88051E4
:1030600045F00206551C9D4284F8806126D215F079
:10307000800523D194F8815145F00206951C9D42AC
:1030800084F881611AD215F0800517D194F8825125
:1030900045F00206D51C9D4284F882610ED215F0DF
:1030A00080050BD194F88351043245F002059A4211
:1030B00084F8835102D212F08004CDD00A4600BFBA
:1030C0000EEB020494F8805145F00406551C9D4215
:1030D00084F8806126D215F0800523D194F88151BF
:1030E00045F00406951C9D4284F881611AD215F0C2
:1030F000800517D194F8825145F00406D51C9D42F5
:1031000084F882610ED215F080050BD194F88351BA
:10311000043245F004059A4284F8835102D212F039
:103120008004CDD00A4600BF0EEB020494F8805113
:1031300045F00806551C9D4284F8806126D215F0A2
:10314000800523D194F8815145F00806951C9D42D5
:1031500084F881611AD215F0800517D194F8825154
:1031600045F00806D51C9D4284F882610ED215F008
:1031700080050BD194F88351043245F008059A423A
:1031800084F8835102D212F08004CDD00A4600BFE9
:103190000EEB020494F8805145F01006551C9D4238
:1031A00084F8806156D215F0800553D194F881518E
:1031B00045F01006951C9D4284F881614AD215F0B5
:1031C000800547D194F8825145F01006D51C9D42E8
:1031D00084F882613ED215F080053BD194F883518A
:1031E000043245F010059A4284F8835132D212F02D
:1031F0008004CDD02EE000BF14F080047EF47BAFBD
:1032000092F8814144F020058C1C9C4282F8815147
:10321000BEF471AF14F080047EF46DAF92F8824179
:1032200044F02005CC1C9C4282F88251BEF463AF6E
:1032300014F080047EF45FAF92F88341043144F0CF
:103240002004994282F88341BEF455AF11F0800208
:103250007EF451AF0EEB010292F8804144F020055C
:103260004C1C9C4282F88051C6D3FEF744BF00BF7D
:1032700000F1110200F11403D1B2DBB29942BEF4A5
:103280003EAF52B2002A3EF53AAF40F2342EC2F2BF
:10329000000E0A460EEB020494F8005245F00406B4
:1032A000551C9D4284F8006226D215F0800523D17A
:1032B00094F8015245F00406951C9D4284F8016281
:1032C0001AD215F0800517D194F8025245F0040681
:1032D000D51C9D4284F802620ED215F080050BD1F8
:1032E00094F80352043245F004059A4284F80352DC
:1032F00002D212F08004CDD00A4600BF0EEB0204C9
:1033000094F8005245F00806551C9D4284F800626E
:1033100026D215F0800523D194F8015245F0080615
:10332000951C9D4284F801621AD215F0800517D1D0
:1033300094F8025245F00806D51C9D4284F80262BA
:103340000ED215F080050BD194F80352043245F0EB
:1033500008059A4284F8035202D212F08004CDD0BC
:103360000A4600BF0EEB020494F8005245F0100626
:10337000551C9D4284F8006226D215F0800523D1A9
:1033800094F8015245F01006951C9D4284F80162A4
:103390001AD215F0800517D194F8025245F01006A4
:1033A000D51C9D4284F802620ED215F080050BD127
:1033B00094F80352043245F010059A4284F80352FF
:1033C00002D212F08004CDD00A4600BF0EEB0204F8
:1033D00094F8005245F02006551C9D4284F8006286
:1033E00026D215F0800523D194F8015245F020062D
:1033F000951C9D4284F801621AD215F0800517D100
:1034000094F8025245F02006D51C9D4284F80262D1
:103410000ED215F080050BD194F80352043245F01A
:1034200020059A4284F8035202D212F08004CDD0D3
:103430000A4600BF0EEB020494F8005245F0400625
:10344000551C9D4284F8006226D215F0800523D1D8
:1034500094F8015245F04006951C9D4284F80162A3
:103460001AD215F0800517D194F8025245F04006A3
:10347000D51C9D4284F802620ED215F080050BD156
:1034800094F80352043245F040059A4284F80352FE
:1034900002D212F08004CDD00A4600BF0EEB020427
:1034A00094F8005245F08006551C9D4284F8006255
:1034B00026D215F0800523D194F8015245F08006FC
:1034C000951C9D4284F801621AD215F0800517D12F
:1034D00094F8025245F08006D51C9D4284F80262A1
:1034E0000ED215F080050BD194F80352043245F04A
:1034F00080059A4284F8035202D212F08004CDD0A3
:103500000A4600BF0EEB020494F8805245F0010613
:10351000551C9D4284F8806226D215F0800523D187
:1035200094F8815245F00106951C9D4284F8816211
:103530001AD215F0800517D194F8825245F0010691
:10354000D51C9D4284F882620ED215F080050BD105
:1035500094F88352043245F001059A4284F883526C
:1035600002D212F08004CDD00A4600BF0EEB020456
:1035700094F8805245F00206551C9D4284F8806202
:1035800026D215F0800523D194F8815245F0020629
:10359000951C9D4284F881621AD215F0800517D1DE
:1035A00094F8825245F00206D51C9D4284F882624E
:1035B0000ED215F080050BD194F88352043245F0F9
:1035C00002059A4284F8835202D212F08004CDD0D0
:1035D0000A4600BF0EEB020494F8805245F0040640
:1035E000551C9D4284F8806226D215F0800523D1B7
:1035F00094F8815245F00406951C9D4284F881623E
:103600001AD215F0800517D194F8825245F00406BD
:10361000D51C9D4284F882620ED215F080050BD134
:1036200094F88352043245F004059A4284F8835298
:1036300002D212F08004CDD00A4600BF0EEB020485
:1036400094F8805245F00806551C9D4284F880622B
:1036500026D215F0800523D194F8815245F0080652
:10366000951C9D4284F881621AD215F0800517D10D
:1036700094F8825245F00806D51C9D4284F8826277
:103680000ED215F080050BD194F88352043245F028
:1036900008059A4284F8835202D212F08004CDD0F9
:1036A0000A4600BF0EEB020494F8805245F0100663
:1036B000551C9D4284F8806226D215F0800523D1E6
:1036C00094F8815245F01006951C9D4284F8816261
:1036D0001AD215F0800517D194F8825245F01006E1
:1036E000D51C9D4284F882620ED215F080050BD164
:1036F00094F88352043245F010059A4284F88352BC
:1037000002D212F08004CDD00A4600BF0EEB0204B4
:1037100094F8805245F02006551C9D4284F8806242
:1037200056D215F0800553D194F8815245F0200609
:10373000951C9D4284F881624AD215F0800547D1DC
:1037400094F8825245F02006D51C9D4284F882628E
:103750003ED215F080053BD194F88352043245F0F7
:1037600020059A4284F8835232D212F08004CDD0E0
:103770002EE000BF14F080047EF4C1AC92F88142C8
:1037800044F040058C1C9C4282F88152BEF4B7ACD8
:1037900014F080047EF4B3AC92F8824244F0400509
:1037A000CC1C9C4282F88252BEF4A9AC14F0800476
:1037B0007EF4A5AC92F88342043144F0400499426F
:1037C00082F88342BEF49BAC11F080027EF497AC89
:1037D0000EEB010292F8804244F040054C1C9C42E2
:1037E00082F88052C6D3FEF78ABC00BFC11C00F12C
:1037F0001102CBB2D2B29342BEF485AC49B20029D9
:103800003EF581AC40F2342EC2F2000E194600BFE4
:103810000EEB010494F8805245F080064D1C954251
:1038200084F8806226D215F0800523D194F8815265
:1038300045F080068D1C954284F881621AD215F0FD
:10384000800517D194F8825245F08006CD1C954230
:1038500084F882620ED215F080050BD194F8835261
:10386000043145F08005914284F8835202D211F070
:103870008004CDD0194600BF0EEB010494F800532C
:1038800045F001064D1C954284F8006356D215F0B0
:10389000800553D194F8015345F001068D1C9542E3
:1038A00084F801634AD215F0800547D194F8025399
:1038B00045F00106CD1C954284F802633ED215F016
:1038C00080053BD194F80353043145F00105914242
:1038D00084F8035332D211F08004CDD02EE000BF23
:1038E00014F080047EF40FAC91F8014344F002051B
:1038F0009C1C944281F80153BEF405AC14F0800482
:103900007EF401AC91F8024344F00205DC1C9442C1
:1039100081F80253BEF4F7AB14F080047EF4F3ABED
:1039200091F80343043344F00204934281F80343C3
:10393000BEF4E9AB13F080017EF4E5AB0EEB0301BE
:1039400091F8004344F002055C1C944281F8005356
:10395000C6D3FEF7D8BB00BFC21C1130D1B2C0B273
:103960008142BFF40AA952B2002A3FF506A940F2EB
:103970003422C2F200020B46D51895F880715E1C05
:1039800047F04007864285F8807126D216F08007FE
:1039900023D195F881719E1C47F04007864285F837
:1039A00081711AD216F0800717D195F88271DE1C4A
:1039B00047F04007864285F882710ED216F08007E4
:1039C0000BD195F88371043347F04007834285F8A3
:1039D000837102D213F08007CED00B46D51895F82C
:1039E00080715E1C47F08007864285F8807135D271
:1039F00016F0800732D195F881719E1C47F0800740
:103A0000864285F8817129D216F0800726D195F873
:103A10008271DE1C47F08007864285F882711DD2D4
:103A200016F080071AD195F88371043347F08007A8
:103A3000834285F8837111D213F08007CED00DE058
:103A400093F80372043147F00107814283F803724F
:103A500028BFF0BD11F080037FF48FA8531893F8AE
:103A600000724E1C47F00107864283F80072BFF4D3
:103A700084A816F080077FF480A893F801728E1C4A
:103A800047F00107864283F80172BFF476A816F06A
:103A900080077FF472A893F80272CE1C47F00107EA
:103AA000864283F80272BFF468A816F08007C7D078
:103AB000FFF763B82DE9F04F81B040F27008C2F211
:103AC000000898F8000001281CBF01B0BDE8F08F85
:103AD000D8F8080041F25971CDF2B711A0FB0112DC
:103AE00048F68901C8F68801A0FB0113510B42F288
:103AF000107201FB120142F2C5024A434FEAD25949
:103B000041F27B424A43D20CCD275743C7F3C42727
:103B100007EB8707A2EB470A8AB24CF6CD477A43F8
:103B2000D20C41F69A1757433F0C07EB8707A2EBDD
:103B3000470B02EB8202A1EB4201009199090901B6
:103B400040F23424A1EB9311C2F20004A0EBC106B1
:103B500020464FF48061FCF712FD002E00F0A58096
:103B6000301D0421625C4B1C42F0100283426254FF
:103B70001BD211F0800218D1621853788F1C43F0C9
:103B800010038742537010D29378CF1C43F0100378
:103B90008742937009D2D378B14243F01003D370B7
:103BA00003D2043111F08002DCD00421625C4B1C92
:103BB00042F02002834262541BD211F0800218D1DD
:103BC000621853788F1C43F020038742537010D241
:103BD0009378CF1C43F020038742937009D2D378A7
:103BE000B14243F02003D37003D2043111F08002BC
:103BF000DCD00021621892F884334F1D43F0040397
:103C0000874282F8843322D20B1D13F080071ED125
:103C100092F885738D1D47F00407854282F88573FD
:103C200015D292F88673CD1D47F00407854282F8BD
:103C300086730CD292F88773B34247F0040782F878
:103C4000877304D2083111F080011946D2D00021C7
:103C5000621892F884334F1D43F00803874282F8BC
:103C6000843322D20B1D13F080071ED192F8857386
:103C70008D1D47F00807854282F8857315D292F8AA
:103C80008673CD1D47F00807854282F886730CD2F3
:103C900092F88773B34247F0080782F8877304D21B
:103CA000083111F080011946D2D05FFA89F1042061
:103CB000FEF714FA5FFA8AF12020FEF70FFA5FFA96
:103CC0008BF13C20FEF70AFA0098C1B25820FEF7AB
:103CD00005FA98F80800C00717D094F83E0394F846
:103CE0003F1394F8402340F0F00094F8413384F8F7
:103CF0003E0341F0F00084F83F0342F0F00084F806
:103D0000400343F0F00084F8410398F80D0088B1B7
:103D100094F8760094F8771094F8782040F01C001E
:103D200084F8760041F01C0084F8770042F01C0013
:103D300084F8780098F80E0088B194F87A0094F826
:103D40007B1094F87C2040F01C0084F87A0041F04D
:103D50001C0084F87B0042F01C0084F87C0098F87A
:103D60000C0058B194F87E0094F87F1040F01C00CD
:103D700084F87E0041F01C0084F87F0001B0BDE8AB
:103D8000F04F00F033BA0000B0B582B040F6004406
:103D9000C4F2010420464FF400710122FCF708FE32
:103DA00020464FF480710122FCF702FE0025ADF899
:103DB0000450BDF80400952828D800BF00BFBDF806
:103DC00004000130ADF80400BDF8040095281DD8AA
:103DD00000BFBDF804000130ADF80400BDF80400D8
:103DE000952813D800BFBDF804000130ADF80400D9
:103DF000BDF80400952809D800BFBDF804000130C3
:103E0000ADF80400BDF804009628D7D320464FF43F
:103E100000710022FCF7CCFDADF80650BDF806009D
:103E2000952827D800BFBDF806000130ADF8060080
:103E3000BDF8060095281DD800BFBDF8060001306A
:103E4000ADF80600BDF80600952813D800BFBDF8F0
:103E500006000130ADF80600BDF80600952809D827
:103E600000BFBDF806000130ADF80600BDF8060041
:103E70009628D7D320464FF48071002202B0BDE8C7
:103E8000B040FCF795BD0000F0B583B040F60044AB
:103E90000546C4F201040026002704E06D00072F48
:103EA00007F1010770D220464FF480710022FCF721
:103EB0007FFDE8B2C20920464FF40071FCF778FD9F
:103EC000ADF80260BDF80200952827D800BFBDF804
:103ED00002000130ADF80200BDF8020095281DD89F
:103EE00000BFBDF802000130ADF80200BDF80200CD
:103EF000952813D800BFBDF802000130ADF80200CC
:103F0000BDF80200952809D800BFBDF802000130B5
:103F1000ADF80200BDF802009628D7D320464FF432
:103F200080710122FCF744FDADF80460BDF8040087
:103F30009528B3D800BFBDF804000130ADF80400E7
:103F4000BDF804009528A9D800BFBDF804000130D1
:103F5000ADF80400BDF8040095289FD800BFBDF857
:103F600004000130ADF80400BDF80400952895D890
:103F700000BFBDF804000130ADF80400BDF8040036
:103F80009628D7D38AE700BF20464FF480710022DD
:103F90000025FCF70DFD20464FF400710122FCF7CF
:103FA00007FDADF80650BDF80600952828D800BFDB
:103FB00000BFBDF806000130ADF80600BDF80600F0
:103FC00095281DD800BFBDF806000130ADF80600E9
:103FD000BDF80600952813D800BFBDF806000130D3
:103FE000ADF80600BDF80600952809D800BFBDF859
:103FF00006000130ADF80600BDF806009628D7D3BC
:1040000020464FF480710122FCF7D2FCADF8085035
:10401000BDF80800952827D800BFBDF8080001307A
:10402000ADF80800BDF8080095281DD800BFBDF800
:1040300008000130ADF80800BDF80800952813D835
:1040400000BFBDF808000130ADF80800BDF8080059
:10405000952809D800BFBDF808000130ADF8080068
:10406000BDF808009628D7D320464FF40071FCF71E
:1040700099FC054620464FF4807100220024FCF78D
:1040800097FCADF80A40BDF80A00952828D800BF73
:1040900000BFBDF80A000130ADF80A00BDF80A0003
:1040A00095281DD800BFBDF80A000130ADF80A0000
:1040B000BDF80A00952813D800BFBDF80A000130EA
:1040C000ADF80A00BDF80A00952809D800BFBDF870
:1040D0000A000130ADF80A00BDF80A009628D7D3CF
:1040E000B5FA85F0400903B0F0BD000070B582B0AC
:1040F00040F600450446C4F20105FFF745FE2046A0
:10410000FFF7C2FE044628464FF400710022002645
:10411000FCF74EFC28464FF480710122FCF748FC66
:10412000ADF80460BDF80400952827D800BFBDF89D
:1041300004000130ADF80400BDF8040095281DD836
:1041400000BFBDF804000130ADF80400BDF8040064
:10415000952813D800BFBDF804000130ADF8040065
:10416000BDF80400952809D800BFBDF8040001304F
:10417000ADF80400BDF804009628D7D328464FF4C4
:1041800000710122FCF714FCADF80660BDF80600D2
:10419000952827D800BFBDF806000130ADF806000D
:1041A000BDF8060095281DD800BFBDF806000130F7
:1041B000ADF80600BDF80600952813D800BFBDF87D
:1041C00006000130ADF80600BDF80600952809D8B4
:1041D00000BFBDF806000130ADF80600BDF80600CE
:1041E0009628D7D3204602B070BD00002DE9F047D5
:1041F00082B040F2342040F6004AC2F2000040F2A1
:104200000C08C4F2010A441E4FF00009C2F2000873
:10421000002705E00137082F04F1800400F08E80AC
:1042200047F0B000C0B200F08DF8022000F08AF82C
:10423000102000F087F8FFF7A7FD98F80000FFF7BF
:1042400023FE4020FFF720FE8026254615F8010FAB
:10425000FFF71AFE013EF9D150464FF400710022DB
:10426000FCF7A6FB50464FF480710122FCF7A0FB3F
:10427000ADF80490BDF80400952827D800BFBDF81C
:1042800004000130ADF80400BDF8040095281DD8E5
:1042900000BFBDF804000130ADF80400BDF8040013
:1042A000952813D800BFBDF804000130ADF8040014
:1042B000BDF80400952809D800BFBDF804000130FE
:1042C000ADF80400BDF804009628D7D350464FF44B
:1042D00000710122FCF76CFBADF80690BDF80600FA
:1042E000952897D800BFBDF806000130ADF806004C
:1042F000BDF8060095288DD800BFBDF80600013036
:10430000ADF80600BDF8060095283FF683AF00BF64
:10431000BDF806000130ADF80600BDF8060095288E
:104320003FF678AF00BFBDF806000130ADF80600DB
:10433000BDF806009628D5D36CE700BF02B0BDE8F3
:10434000F087000070B582B040F600440546C4F224
:104350000104FFF719FD40F20C00C2F200000078E2
:10436000FFF792FD00200026FFF78EFD2846FFF79D
:104370008BFD20464FF400710022FCF719FB20460C
:104380004FF480710122FCF713FBADF80460BDF817
:104390000400952828D800BF00BFBDF804000130F4
:1043A000ADF80400BDF8040095281DD800BFBDF885
:1043B00004000130ADF80400BDF80400952813D8BE
:1043C00000BFBDF804000130ADF80400BDF80400E2
:1043D000952809D800BFBDF804000130ADF80400ED
:1043E000BDF804009628D7D320464FF4007101226F
:1043F000FCF7DEFAADF80660BDF80600952827D870
:1044000000BFBDF806000130ADF80600BDF806009B
:1044100095281DD800BFBDF806000130ADF8060094
:10442000BDF80600952813D800BFBDF8060001307E
:10443000ADF80600BDF80600952809D800BFBDF804
:1044400006000130ADF80600BDF806009628D7D367
:1044500002B070BD7047000070470000FCF79CBBC5
:1044600070470000FEE700009EB0FCF7A3FB0024AD
:104470000120CDE90B44CDE9094406900A904FF4A0
:10448000E0104FF4803102250F9006A8CDE9071403
:10449000CDE90D51FCF72AFD20B1EFF3108072B683
:1044A000FEE700BF0F20CDE910054FF48060CDE995
:1044B000130410A802211294FCF712FC20B1EFF3B0
:1044C000108072B6FEE700BF002541F21800CDE96A
:1044D0000855CDE90655C4F20200016840F60048CF
:1044E00041F0100101600168C4F2010801F01001FF
:1044F00010911099016808F5806741F02001016072
:104500000168002201F020011091109901684FF418
:10451000005641F004010160016801F004011091AE
:104520001099016841F00801016000684FF40051E2
:1045300000F00800109010983846FCF739FAA8F5FA
:1045400080642046022101224FF002094FF0010B46
:10455000FCF72EFA20464FF400610022FCF728FAFF
:1045600040464FF4407100224FF4407AFCF720FAA5
:10457000CDE9066B06AE38463146CDE90859FCF761
:1045800009F940F23140CDE906052046314608954B
:10459000FCF700F940F60200CDE9060B2046314653
:1045A000CDE90859FCF7F6F849F23100CDE90605E6
:1045B000404631460895FCF7EDF80020C1F21100A5
:1045C000CDE9070540463146CDF81890FCF7E2F8F2
:1045D0001120CDE907050320099040463146CDF86A
:1045E00018A0FCF7D7F840F2C000A8F53441C2F299
:1045F000000041F680224FF48043C0F2060280E8BA
:104600002600C0E90353C0E90555C0E90755FCF78A
:10461000DBF928B1EFF3108072B600BFFEE700BFF0
:1046200040F2141008F50051C2F2000040F62722B3
:1046300080231D95CDE91B55CDE91855CDE90C55C5
:10464000CDE90A55CDE90855CDE90655C0E9001573
:10465000C0E90252C0E904558361FCF76FFF28B13D
:10466000EFF3108072B600BFFEE700BF4FF480503A
:104670001A9040F21410C2F200001AA9FCF7F4FFDD
:1046800020B1EFF3108072B6FEE700BF40F21410C5
:10469000C2F20000FDF734FA20B1EFF3108072B6D9
:1046A000FEE700BF40F21410C2F2000018A9FCF7A8
:1046B00059FE28B1EFF3108072B600BFFEE700BFCD
:1046C000602010900020CDE91100CDE91300CDE964
:1046D000150040F21410C2F2000010A90022FDF7EC
:1046E0000DF928B1EFF3108072B600BFFEE700BFEE
:1046F00040F21410C2F2000010A90422FDF7FEF8E7
:1047000020B1EFF3108072B6FEE700BF00250F2046
:10471000CDE909054FF400500B9040F21410C2F29D
:10472000000006A9CDE9065508950D95FCF7F4FDA6
:1047300020B1EFF3108072B6FEE700BF40F2141410
:10474000C2F200042046FDF75FF840F25C10A8F5C5
:104750008431C2F200004FF6FF72CDE91055CDE969
:104760000B55CDE90955C0E90015C0E902520561B4
:104770008561FDF7C5F918B1EFF3108072B6FEE759
:1047800040F25C10C2F2000010A9FCF7EBFD18B17A
:10479000EFF3108072B6FEE7602006900020CDE9AE
:1047A00007000A9040F25C10C2F2000006A9002245
:1047B000FDF7A4F820B1EFF3108072B6FEE700BF5A
:1047C00040F25C10C2F2000006A90422FDF796F840
:1047D00020B1EFF3108072B6FEE700BF40F25C102C
:1047E000C2F20000FDF710F840F2A4100021A8F575
:1047F0008232C2F200004FF6FF73CDE91011CDE90D
:104800000B11CDE90911C0E90021C0E902130161D2
:104810008161FDF775F918B1EFF3108072B6FEE70C
:1048200040F2A410C2F2000010A9FCF79BFD18B1E1
:10483000EFF3108072B6FEE7602006900020CDE90D
:1048400007000A9040F2A410C2F2000006A900225C
:10485000FDF754F820B1EFF3108072B6FEE700BF09
:1048600040F2A410C2F2000006A90422FDF746F8A7
:1048700020B1EFF3108072B6FEE700BF40F2A41043
:10488000C2F20000FCF7C0FF40F2EC10A8F548416E
:10489000C2F2000000250C234FF4E13280E826002C
:1048A000C0E90355C0E90535C561FDF797FA18B1B0
:1048B000EFF3108072B6FEE740F2700640F2EC179C
:1048C000C2F200064FF48070C2F20007B0810FF20E
:1048D0005841384610224FF0FF33B560F573FDF7AD
:1048E0002DFB0FF2584138461B224FF0FF33FDF7E6
:1048F00025FB3220FBF73AFF40464FF400710122BE
:104900000127FCF755F840464FF480710122FCF76F
:104910004FF878207825FFF7E9FB40F20C08C2F247
:104920000008F8B97A207A25FFF7E0FBD0B9022019
:10493000FBF71CFF78207825FFF7D8FB90B97A2089
:104940007A25FFF7D3FB68B90220FBF70FFF782029
:104950007825FFF7CBFB28B97A207A25FFF7C6FB2D
:1049600000286DD0AE2088F800503770FFF7EAFCC1
:10497000D520FFF7E7FC8020FFF7E4FCA820FFF735
:10498000E1FC3F20FFF7DEFCD320FFF7DBFC00203B
:10499000FFF7D8FC4020FFF7D5FC8D20FFF7D2FCB5
:1049A0001420FFF7CFFC2020FFF7CCFC0220FFF7FC
:1049B000C9FCA120FFF7C6FCC820FFF7C3FCDA2022
:1049C000FFF7C0FC1220FFF7BDFC8120FFF7BAFC07
:1049D000CF20FFF7B7FCD920FFF7B4FCF120FFF799
:1049E000B1FCDB20FFF7AEFC4020FFF7ABFCA420BE
:1049F000FFF7A8FCA620FFF7A5FCAF20FFF7A2FC5D
:104A0000A520FFF79FFC4FF49670FBF7AFFEA420A4
:104A1000FFF798FC40F23420C2F200004FF48061AE
:104A2000FBF7ADFDFFF7E2FB3078C107B07310D0A4
:104A300040F2EC10C2F20000CFA10C2211E000BF46
:104A40000220FBF793FE782088F8000000203070E9
:104A5000B0730120307340F2EC10C2F20000BEA12E
:104A60001C224FF0FF33FDF769FA20460021002594
:104A7000FDF760F920460021FCF716FD20680421AF
:104A800045632046FDF756F920460421FCF70CFD4E
:104A900020684FF000098563FFF70CF8F07B0138C0
:104AA000C0B2042806D844F6D051C0F6000151F82F
:104AB000200003E044F6AB60C0F6000098F8002048
:104AC000B37B5208377B717B8DE80B00039206F1B4
:104AD000100544F60E6244F6B063C0F60002C0F65C
:104AE0000003284640210497FBF78EFB2846FBF77E
:104AF00027FD40F2EC18C2F2000882B24046294677
:104B00004FF0FF33FDF71AFAF07BB27BB368717B8D
:104B1000377B8DE8070044F67D62C0F60002284628
:104B200040210397FBF770FB2846FBF709FD82B293
:104B3000404629464FF0FF33FDF700FA44F6486A35
:104B4000C0F6000A4FF4617B3EE000BF727BB37B8E
:104B5000317BCDE9022344F6B063009004912846EE
:104B600040215246C0F600030197FBF74DFB284653
:104B7000FBF7E6FC82B2404629464FF0FF33FDF7D3
:104B8000DDF9F07BB27BB368717B377B8DE8070082
:104B900044F67D6228464021C0F600020397FBF7E9
:104BA00033FB2846FBF7CCFC82B2404629464FF047
:104BB000FF33FDF7C3F9FEF77DFF706801307060C9
:104BC0004FF47A70FBF7D2FD70684AF6AB21CAF653
:104BD000AA21A0FB01014AF6AB224808C2F6AA228C
:104BE000A0FB020202EB42006FEA400000EB510022
:104BF000042813D8DFE800F0042C46546C0000BFF2
:104C000020680121F173C0F834B020460021FDF77F
:104C100091F820460021FCF7E5FB26E0002720461E
:104C20000021F773FDF786F820460021FCF73CFCD5
:104C30002068042147632046FDF77CF820460421C4
:104C4000FCF732FC20684FF00009876358E000BF92
:104C500020680221F173C0F834B020460021FCF72F
:104C600023FC20460021FCF7F7FF20460421FDF736
:104C700061F820460421FCF717FC2068C0F8389042
:104C80003EE000BF0320F07320460021FDF752F8FC
:104C900020460021FCF708FC2068C0F8349025E08D
:104CA0000420F07320460021FDF744F8204600213F
:104CB000FCF7FAFB20680421C0F83490C0F838B043
:104CC0002046FDF737F820460421FCF78BFB17E060
:104CD00020680521F173C0F834B020460021FDF7AB
:104CE00029F820460021FCF77DFB2068C0F838B089
:104CF00020460421FCF7D8FB20460421FCF7ACFF3A
:104D0000F07B77680138C1B244F6AB600429C0F685
:104D10000000B7603FF61AAF44F6D050C0F600006E
:104D200050F8210012E700BF53797374656D20625B
:104D30006F6F74204F4B0D0A000000005553415215
:104D400054322072656164792C20626175643D3152
:104D500031353230300D0A004F4C4544206E6F74AF
:104D600020666F756E642028307833432F30783397
:104D700044290D0A000000004F4C45442072656133
:104D800064790D0A0000000030380A2801D20120A1
:104D90007047002070473031323334353637383978
:104DA0004142434445464030580030313233343577
:104DB00036373839616263646566403078000400D4
:104DC00000080000000000000002000100001000C8
:104DD000924E0008B64E00089A4E0008BE4E0008DB
:104DE000A24E0008000000000000000001020304C1
:104DF0000607080900000000010203040102020383
:104E00000405060708090A0B0C0D0E0F1010424F7F
:104E10004F547C6D6F64653D25737C737465703D84
:104E200025737C756172743D25757C6F6C65643D7E
:104E300025757C616464723D3078253032587C651C
:104E400072723D25750D0A00535441547C6D6F6498
:104E5000653D25737C737465703D25737C68623D88
:104E6000256C757C756172743D25757C6F6C65640D
:104E70003D25757C6572723D25750D0A006F627364
:104E80003A256C752C25752C25752C25752C2575CA
:104E90000A00504D315F46574400504D325F46572F
:104EA0004400424F54485F4657440053544F50000B
:104EB0004D4F544F5200504D315F52455600504DAA
:104EC000325F524556000000E84E00080000002006
:104ED0001000000050010008F84E000810000020EB
:104EE000280C000070010008010000001000000004
:084EF00000127A0078000000B6
:04000005080000ED02
:00000001FF
